:02000002D0002C
:1040000000400D00C4880D00000006000E000501F0
:0840100004017E050000000020
:04401800A8800D006F
:10401C0009480A49884208B505D0094A824202D0AB
:10402C00121A03F0A2FE0748074A0021121A03F0E5
:10403C00C2FE014808BD00BFF4E2032020880D0039
:10404C0070E3032070E30320F0E7032070B503F066
:10405C0041FC074C074BE41AA40800251E46A54258
:10406C0004D056F8253098470135F8E770BD00BFED
:10407C0018880D00E0870D0000F07EB808B500F040
:10408C00EFF8BDE8084003F0F3BB00F05BBE00F0B6
:10409C0059BE00F05FBE00F05DBE000008B5034ADB
:1040AC0000210C2000F098FDFEE700BF95480D00A4
:1040BC000078B0FA80F04009704701230370704714
:1040CC007047006A0368DB681847000008B5054AAA
:1040DC000549064802F020FC0121042003F049FCAC
:1040EC00002008BDF8800D00FE800D00E4E30320E5
:1040FC0038B50D49054602F00AFF044628B10121E6
:10410C00042003F036FC012038BD0849284602F093
:10411C00FEFE28B12146042003F02BFC204638BDBE
:10412C004FF0FF3038BD00BF07810D000A810D0034
:10413C000A4B10B50446036001F0AEFA214601F0BB
:10414C009BFC03F049FB03F03BFB2046044B40F87F
:10415C00043B01F097FB204610BD00BFDC800D0036
:10416C00C4800D0010B50446FFF7E2FF2046242161
:10417C0003F077FC204610BD10B50121042003F09C
:10418C00E7FB0121052003F0E3FB0121062003F0EE
:10419C00DFFB0121072003F0DBFB03F01DFB4FF4D9
:1041AC00165103F009FB0B4C0121042003F0E1FB39
:1041BC00094A0A490A4802F027FC0A4A0A492046D9
:1041CC0000F04BFE2046094A0949BDE8104000F0BA
:1041DC0044BE00BF3B4E0D0021450D00FE800D007E
:1041EC00E4E303200E810D00FD400D0016810D004F
:1041FC00D9400D001549164A164808B502F08CFB3B
:10420C0003F0EAFA144902F00DFD03F0E5FA134A43
:10421C00002102F075FD40F6B83000F0BBFD0E2019
:10422C0003F0C0FB40F63C73984207DD0F2003F00F
:10423C00B9FB40F6AB539842E7DD08BD0E2003F006
:10424C00B1FBB0F5FA6FF1DB08BD00BFFE800D00CD
:10425C001C810D00E4E303202B810D0048810D002F
:10426C0010B503F0B9FA4F4902F0DCFC0E2003F054
:10427C0099FBB0F5FA6F06DD0F2003F093FB40F6C7
:10428C00AC5398422EDC0E2003F08CFBB0F5FA6F89
:10429C002EDB0E2003F086FB40F63C73984227DCA5
:1042AC0003F09AFA404A002102F02AFD03F094FA36
:1042BC003E4902F0B7FC03F08FFA04460E2003F0DF
:1042CC0071FB0A220146204602F0F8FC03F084FA46
:1042DC00374A002102F014FD4FF4FA60BDE810409B
:1042EC0000F058BD334A3449344802F015FBF3E76B
:1042FC000E2003F057FB40F63C73984205DC0E2071
:10430C0003F050FBB0F5FA6F22DA0F2003F04AFBF2
:10431C00B0F5FA6F1CDA03F05FFA234902F082FC65
:10432C0003F05AFA264902F07DFC03F055FA0446D4
:10433C000F2003F037FB0A220146204602F0BEFC98
:10434C0003F04AFA184902F06DFCFFF753FFC3E77C
:10435C000E2003F027FBB0F5FA6F1CDA0F2003F0E8
:10436C0021FB40F6AC53984215DD03F035FA1549A4
:10437C0002F058FC03F030FA134902F053FC03F03E
:10438C002BFA04460E2003F00DFB0A2201462046B0
:10439C0002F094FCA0E703F01FFA0C4902F055FC64
:1043AC009AE700BF5F810D006B810D0091810D00BC
:1043BC006C810D00F8800D00FE800D00E4E30320FD
:1043CC00B0810D00D0810D009C810D00F7810D0096
:1043DC0008B54FF4FA7000F0DDFC0021072003F063
:1043EC00C8FA4FF4FA7000F0D5FC0121072003F055
:1043FC00C0FA4FF4FA7000F0CDFC0021072003F056
:10440C00B8FA4FF4FA7000F0C5FC0121072003F054
:10441C00B0FA4FF4FA7000F0BDFC0021072003F055
:10442C00A8FA4FF4FA7000F0B5FC0121072003F054
:10443C00A0FA4FF4FA7000F0ADFC00210720BDE8A3
:10444C00084003F096BA70B5046843681426054614
:10445C0006FB0346A64204D0204602F0E4FC1434CA
:10446C00F8E7286800F076FC284670BD13460A462B
:10447C00002102F045BC000010B50446FFF7A8FF70
:10448C004FF47A7000F086FC1949204603F05CFD6D
:10449C0068B10121052003F06CFA03F09DF9154970
:1044AC0002F0C0FB03F098F92246134911E01349BE
:1044BC00204603F049FDD0B10121062003F059FA42
:1044CC0003F08AF90B4902F0ADFB03F085F90C49B6
:1044DC002246FFF7CBFF0B490B4A0C4802F01CFAA3
:1044EC0003F07AF90A49BDE8104002F09BBB10BDFD
:1044FC002A820D002D820D0041820D0090820D004C
:10450C0093820D00FE800D0066820D00E4E3032013
:10451C007B820D0070B54B4A8CB043F25823106867
:10452C0001930C4643F241135168039309AB03C347
:10453C0012891A80444B059300250F3B09A920468C
:10454C008DF808508DF81050ADF82E508DF818508D
:10455C0007938DF8205003F0F7FC60B303A92046B5
:10456C0003F0F2FC064640B103F036F9374903AAD2
:10457C00FFF77CFF292128460DE001A9204603F016
:10458C00E3FC002857D003F027F9304901AAFFF7C4
:10459C006DFF2921304602F0F8FB102104460A2059
:1045AC0002F0F3FB42F2107394FBF0F0584300F06E
:1045BC00F1FB274A1FE02749204603F0C5FC40B118
:1045CC0007A9204603F0C0FC18B103A8FFF754FF5D
:1045DC0031E005A9204603F0B7FC0546F0B103A96C
:1045EC00204603F0B1FC58B10F2003F0DBF9B0F515
:1045FC00FA6F20DA184A1949194802F08DF91AE0B5
:10460C0001A9204603F0A0FCA8B10F2003F0CAF9C1
:10461C0044F61F6398420EDC124AECE7124920461E
:10462C0003F092FC38B12946052003F0A2F9294683
:10463C00062003F09EF940F6B83000F0ABFB0CB04E
:10464C0070BD00BFEC800D0052545300BA820D00B7
:10465C00CF820D00F4E20320D8820D00FE800D0005
:10466C00E4E30320E4820D00F8800D008842F8B5E5
:10467C0006460C46154616D9904215D2A2F11405E1
:10468C006C1AA1F114070444AF421CD02CB129467A
:10469C00204602F0B8FB2B7C2374284602F0C3FBA7
:1046AC00143D143CF0E70ED0AC420CD02EB1214698
:1046BC00304602F0A8FB237C3374204602F0B3FB97
:1046CC0014341436F0E7F8BD2DE9F04100230360F3
:1046DC00436083604E689E4204460F4624DD4FF0D3
:1046EC00140808FB06F000F02DFB0546E0B194E839
:1046FC00060008FB0212FFF7B9FF206800F02AFB46
:10470C002560A6603E687B6808FB0368464509D0B7
:10471C002DB13146284602F0EFFB337C2B74143656
:10472C001435F3E77B6863602046BDE8F081000038
:10473C0070B58CB000F0B8F80021012000F07CFAC4
:10474C00002300930193029303F046F81C4C064699
:10475C00694603A8FFF7B8FF254603A906A8FFF78B
:10476C00B3FF184B45F8043B06A909A8FFF7ACFFAB
:10477C0009AA0121284601F0E2FA09A8FFF763FE15
:10478C0006A8FFF760FE104B236003A82662FFF714
:10479C005AFE0E4B236003F01FF84FF4165103F032
:1047AC000BF800F079FF214601F05CFA6846FFF740
:1047BC004AFE074A0749204603F04EF90CB070BD7B
:1047CC0074E30320C4800D00AC840D00DC800D006C
:1047DC0070E303203D410D0008B5024B1B685B687C
:1047EC00019308BD4802030008B5024B1B689B6887
:1047FC00019308BD4802030008B5024B1B681B69F6
:10480C00019308BD4802030008B5024B1B685B69A5
:10481C00019308BD4802030008B5024B1B681B6BD3
:10482C00019308BD4802030008B5024B1B685B6C82
:10483C00019308BD4802030008B5024B1B68DB6CF2
:10484C00019308BD4802030008B5024B1B685B6D61
:10485C00019308BD4802030008B5024B1B68DB6ED0
:10486C00019308BD4802030008B5024B1B685B6846
:10487C00019308BD1802030008B5024B1B689B6826
:10488C00019308BD1802030008B5024B1B68DB68D6
:10489C00019308BD1802030008B5024B1B685B6945
:1048AC00019308BD1802030008B5024B1B681B6876
:1048BC00019308BD2C02030008B5024B1B685B6812
:1048CC00019308BD2C02030008B5024B1B689B68C2
:1048DC00019308BD2C02030008B5024B1B68DB6872
:1048EC00019308BD2C02030008B5024B1B681B6921
:1048FC00019308BD2C02030008B5024B1B681B6B0F
:10490C00019308BD2C02030008B5024B1B681B6AFF
:10491C00019308BD2802030008B5024B1B685B6AB3
:10492C00019308BD2802030008B5024B1B689B6A63
:10493C00019308BD2802030008B5024B1B68DB6A13
:10494C00019308BD2802030008B5024B1B681B6BC2
:10495C00019308BD2802030008B5024B1B685B6B72
:10496C00019308BD2802030008B5024B1B681B6CA1
:10497C00019308BD2802030008B5024B1B681B6994
:10498C00019308BD6C02030008B5024B1B685B6900
:10499C00019308BD6C02030008B5024B1B689B69B0
:1049AC00019308BD6C02030008B5024B1B685B6DDC
:1049BC00019308BD6C02030008B5024B1B689B6D8C
:1049CC00019308BD6C02030008B5024B1B685B69C0
:1049DC00019308BD6402030008B5024B1B689B6978
:1049EC00019308BD6402030008B5024B1B681B6AE7
:1049FC00019308BD6402030008B5024B1B685B6A97
:104A0C00019308BD6402030008B5024B1B689B6A46
:104A1C00019308BD6402030008B5024B1B689B6838
:104A2C00019308BD6802030008B5024B1B68DB68E4
:104A3C00019308BD6802030008B5024B1B685B6854
:104A4C00019308BD3802030008B5024B1B689B6933
:104A5C00019308BD3802030008B5024B1B68DB69E3
:104A6C00019308BD3802030008B5024B1B68DB6AD2
:104A7C00019308BD3802030008B5024B1B685B6B41
:104A8C00019308BD3802030008B5024B1B689B6BF1
:104A9C00019308BD3802030008B5024B1B68DB69A3
:104AAC00019308BD3002030008B5024B1B681B6A5A
:104ABC00019308BD3002030008B5024B1B681B684C
:104ACC00019308BD3C02030008B5024B1B689B68B0
:104ADC00019308BD3C02030008B5024B1B68DB6860
:104AEC00019308BD3C02030008B5024B1B681B690F
:104AFC00019308BD3C02030008B5024B1B685B69BF
:104B0C00019308BD3C02030008B5024B1B689B696E
:104B1C00019308BD3C02030008B5024B1B68DB691E
:104B2C00019308BD3C02030008B5024B1B681B6ACD
:104B3C00019308BD3C02030008B5024B1B689B6A3D
:104B4C00019308BD3C02030008B5024B1B68DB6AED
:104B5C00019308BD3C02030008B5024B1B681B689F
:104B6C00019308BD4C02030008B5024B1B685B683F
:104B7C00019308BD4C02030008B5024B1B689B68EF
:104B8C00019308BD4C02030008B5024B1B681B695E
:104B9C00019308BD4C02030008B5024B1B685B690E
:104BAC00019308BD4C02030008B5024B1B689B69BE
:104BBC00019308BD4C02030008B5024B1B68DB696E
:104BCC00019308BD4C02030008B5024B1B681B6A1D
:104BDC00019308BD4C02030008B5024B1B685B6BCC
:104BEC00019308BD6002030008B5024B1B681B6DE6
:104BFC00019308BD6002030008B5024B1B68DB6E15
:104C0C00019308BD6002030008B5024B1B681B6FC3
:104C1C00019308BD6002030008B5024B1B685B687A
:104C2C00019308BD2002030008B5024B1B685B69A9
:104C3C00019308BD2002030008B5024B1B68DB6A18
:104C4C00019308BD2002030008B5034B1B68D3F881
:104C5C008830019308BD00002002030008B5034B07
:104C6C001B68D3F89430019308BD000020020300A8
:104C7C0008B5034B1B68D3F8A430019308BD0000A2
:104C8C002002030008B5024B1B685B68019308BD4A
:104C9C004402030008B5024B1B68DB6B019308BD93
:104CAC004402030008B5024B1B685B68019308BD06
:104CBC004002030008B5024B1B689B68019308BDBA
:104CCC004002030008B5024B1B68DB68019308BD6A
:104CDC004002030008B5024B1B681B69019308BD19
:104CEC004002030008B5024B1B685B69019308BDC9
:104CFC004002030008B5024B1B689B69019308BD79
:104D0C004002030008B5024B1B68DB69019308BD28
:104D1C004002030008B5024B1B681B6A019308BDD7
:104D2C004002030008B5024B1B681B6B019308BDC6
:104D3C004002030008B5024B1B685B6B019308BD76
:104D4C004002030008B5024B1B681B68019308BDA9
:104D5C001C02030008B5024B1B685B68019308BD7D
:104D6C001C02030008B5024B1B689B68019308BD2D
:104D7C001C02030008B5024B1B685B6A019308BD5B
:104D8C001C02030008B5024B1B68DB6A019308BDCB
:104D9C001C0203000021FFF747BF10B5036804464F
:104DAC009B689847A368013BA3602BB923682046F6
:104DBC00DB68BDE81040184710BD0B68036013B1E9
:104DCC005A6801325A60704710B50446006828B121
:104DDC004368013B43600BB9FFF7DFFF204610BD72
:104DEC0038B50C6803689C4205460CD014B1636856
:104DFC0001336360286828B14368013B43600BB9F9
:104E0C00FFF7CBFF2C60284638BD0000024800237A
:104E1C000360FFF709BD00BF98E3032010B583685A
:104E2C00044613B1032201469847204610BD10B525
:104E3C0088B00446684602F03DF8694604A802F0C2
:104E4C005BF804A8A047044604A801F0ECFF6846F0
:104E5C0001F0E9FF204608B010BDF0B5102485B074
:104E6C0007460E46154600212246684602F0A3FF6F
:104E7C00002269461046ADF8004002970396019552
:104E8C00FFF700FF05B0F0BD002211464068FFF7A8
:104E9C0041BF002211464068FFF74CBF002240681A
:104EAC00FFF740BF002281F001014068FFF72ABFE5
:104EBC0000231A4619464068FFF71CBF00231A4608
:104ECC0019464068FFF70EBF002211464068FFF7F5
:104EDC0001BF002211464068FFF7ECBE0022022100
:104EEC004068FFF7EFBE00231A464068FFF7DABEB2
:104EFC00024B03225A60024A1A6070479CE303205B
:104F0C00F8820D007047F8B5064615460C468F180A
:104F1C00BC4206D0336814F8011B9B683046984796
:104F2C00F6E72846F8BD0022007CFFF7EDBC002117
:104F3C00007CFFF7F1BC0021007CFFF7F5BC0021E1
:104F4C00007CFFF7F9BC0021007CFFF7FDBC10B51D
:104F5C001421044602F085FD204610BD10B5044610
:104F6C004FF47A730846A3600021044B20746160EF
:104F7C002360FFF7F9FC204610BD00BF2C830D0009
:104F8C000021007CFFF7E8BC704710B518210446DF
:104F9C0002F067FD204610BDF0B5037D062B8DB0E9
:104FAC000E4600F104074FF0000402D000F1080592
:104FBC0018E00CAD394605F8304D2F232A460A204F
:104FCC00FFF702FD284602F083FF33680246DB68D8
:104FDC002946304698470FE024B12E21304601F087
:104FEC0025FE044415F8011D0A22304601F064FE2A
:104FFC00BD420444F0D120460DB0F0BD10B5054BB8
:10500C000446112240F8043B002102F0D4FE204655
:10501C0010BD00BF54830D000346074A10B543F87A
:10502C00042B01F1100251F8044B43F8044B91424C
:10503C00F9D10A781A7010BD54830D00037D042B2E
:10504C0001D1406808E0062B0AD1436853B9836844
:10505C0043B9C36833B90069003018BF01207047E9
:10506C00002070470120704710B59DF8084044EAB5
:10507C00032343EA024242EA0161042341600375BF
:10508C0010BD37B50D788B784A78C97800912946D0
:10509C00FFF7EAFF03B030BD00F11002012312F854
:1050AC00101C0129104604D152F8041C03EB4103D7
:1050BC0004E0022904BF52F8041C5B18013B02F106
:1050CC001002ECD170470EB42DE9F04187B000AF5F
:1050DC0007F13404054654F8046B7C6023463246D1
:1050EC00102107F10800FFF745FE0F2816D900F133
:1050FC00080323F00703E846ADEB030D3246411CD1
:10510C00234668467C60FFF735FE021E04DD2B68E3
:10511C0069469B6828469847C54607E030B12B681E
:10512C0002469B6807F10801284698471C37BD4684
:10513C00BDE8F04103B0704713B502AB026803F849
:10514C00011D946819460122A04702B010BD836866
:10515C00FBB11A78032A1AD8DFE802F00417021DF3
:10516C000520704702685B685268D05C2D2814D00B
:10517C00A0F13003092B10D9742810D066280ED05A
:10518C00A0F16E035842584170470620704700202A
:10519C007047184670470420704703207047022060
:1051AC00704710B50446FFF7D2FF02280DD016D376
:1051BC00042814D82268A36850685B680A2200216E
:1051CC001844BDE8104002F05FBF2268A368526823
:1051DC005B68D05CA0F174035842584110BD0020AC
:1051EC0010BD10B5436904465BB18068E060013BBB
:1051FC001030A060206163612BB1FFF74DFFA06000
:10520C0001E0184610BD012010BD10B57D210446EB
:10521C00FFF792FF01232371204610BD08B50379D7
:10522C00012B02D0022B02D008BD2C2100E03A2128
:10523C00FFF782FF08BD10B50446FFF7EFFF2046CD
:10524C007B21FFF779FF00232371204610BD00005E
:10525C0038B504460D46FFF7E1FF23680449DB68C7
:10526C0020462A46984701232371204638BD00BFAB
:10527C0029850D0038B504460D46FFF7CFFF23688E
:10528C000449DB6820462A469847012323712046AF
:10529C0038BD00BF6F830D00F8B50D4617462221AF
:1052AC0004462F44FFF748FF2A462946BA4238D015
:1052BC00164616F8015B222D03D05C2D01D01F2D54
:1052CC002DD82368521A9B68204698475C212046AB
:1052DC00FFF732FF0C2D19D007D8092D0FD00A2D4E
:1052EC0012D0082D14D162210AE0222D05D05C2D9C
:1052FC0003D00D2D0CD1722102E0294600E074215F
:10530C002046FFF719FF09E06E21F9E76621F7E760
:10531C0023680A49DB682A462046984731463246BC
:10532C00C4E7914204D02368521A9D682046A847CE
:10533C0022212046FFF700FFF8BD00BF7A830D0045
:10534C0070B504460D461646FFF768FF20463246F8
:10535C002946FFF7A1FF02232371204670BD70B5CB
:10536C0004460D461646FFF759FF2046324629469D
:10537C00FFF792FF01232371204670BD10B5002367
:10538C000446036043601048A060E360D1B10B7821
:10539C00032B06D0B3B9136858684B68C35C6E2BEB
:1053AC0008D0136858684B680344A3608B6849683D
:1053BC005B1AE3601146204651F8043B40F8043B6D
:1053CC00FFF70EFD204610BD29820D00002310B5FD
:1053DC000446036043608360C3600361436171B141
:1053EC000B78012B0BD101F110038360CB68436167
:1053FC00114651F8043B40F8043BFFF7F1FC204602
:10540C0010BD002310B5044603604360816031B1C8
:10541C00114651F8043B40F8043BFFF7E1FC2046F1
:10542C0010BD80680368DB681847704719B10B68BA
:10543C0008465B681847704719B10B6808465B68EB
:10544C001847704770477047704738B504460D468B
:10545C0000682E2102F028FD2368C31A2B6023B1AB
:10546C00037803B1013023682060184638BD10B5AD
:10547C000C21044602F0F5FA204610BD10B50421AB
:10548C00044602F0EEFA204610BD10B50421044685
:10549C0002F0E7FA204610BD38B50C46054602F07E
:1054AC009BF984420DD002F00BF9844205D102F035
:1054BC0007F9BDE8384002F0FCB821462846FFF752
:1054CC00BBFF38BD08B502F0F9FCB0FA80F040091A
:1054DC0008BD38B5054608460C4602F0F9FC2146D5
:1054EC0002462846BDE83840FFF739BF0068FFF791
:1054FC00A3B970B5044608460D4602F0E9FC2368D2
:10550C00024629462046DB68BDE87040184713B5B3
:10551C0002AB026803F8011DD46819460122A047AA
:10552C0002B010BD2DE9F04F4568076885B0914673
:10553C00142255430193AB10194D02925D438B46D7
:10554C003C460123002D039323DD029B6E1003FBCD
:10555C0006F004EB00084A46B8F804A02058D145E0
:10556C0028BF5246594602F0BBFC039B48B9D145B3
:10557C0003D1019A13703546E4E78CBF012000205B
:10558C0000E0C00F0028F6D0AE1B08F11404013E59
:10559C00F1E7E41B0248A410604305B0BDE8F08FAE
:1055AC00CDCCCCCCF0B585B003690191067E13B39C
:1055BC0009B304AF002347F8043D00F10C041D4669
:1055CC00394601A8FFF741FF0146A0B104AB039A8D
:1055DC0003F8055D2046FFF7A5FF9DF80B3053B18E
:1055EC002368142404FB0034083434F9023C002BE7
:1055FC00A8BFDEB2E4E7304605B0F0BD10B5094CEB
:10560C002368DB070BD42046FEF752FD38B1204649
:10561C00FEF753FD044A0549054802F01DFA0448FB
:10562C0010BD00BFA4E3032070E3032053540D000E
:10563C0000E3032010B5094C2368DB070BD420468C
:10564C00FEF736FD38B12046FEF737FD044A054912
:10565C00054802F001FA044810BD00BFD4E3032052
:10566C0070E3032051540D00FCE2032038B50025F3
:10567C00044605604560856005614561856140F8BB
:10568C00245FFFF7D1F8FFF7B9FFE061FFF7D2FF16
:10569C0025732062204638BD10B50A4C2368DB0701
:1056AC000ED42046FEF704FD50B10748FFF7DEFF8D
:1056BC002046FEF702FD054A0549034802F0CCF9E5
:1056CC00014810BDA8E30320ACE3032070E30320E2
:1056DC000F5B0D000023024A02490348FFF794BAFE
:1056EC00F1590D0081590D0009590D0000231A467E
:1056FC0019461846FFF788BA73B502AC0E6951F813
:10570C00043B44F8083D054601A8FFF756FB22462A
:10571C0031462846FFF775FE01A8FFF755FB2846D2
:10572C0002B070BD73B502AC8E6851F8043B44F8FE
:10573C00083D054601A8FFF740FB224631462846A6
:10574C00FFF744FE01A8FFF73FFB284602B070BDEF
:10575C0073B502ACCE6851F8043B44F8083D0546DD
:10576C0001A8FFF72AFB224631462846FFF706FE22
:10577C0001A8FFF729FB284602B070BD30B58BB0ED
:10578C000D46014604A8FFF7CDFF04A8FFF729FD3D
:10579C00E8B104A96846FFF7DBFF0F490298FFF751
:1057AC0091FE044610B12C1C18BF012401A8FFF770
:1057BC000BFB002CE9D004A96846FFF79DFF684657
:1057CC00FFF7EFFC286001A8FFF7FEFADDE705A85C
:1057DC00FFF7FAFA0BB030BDC8830D0037B50C4695
:1057EC0020461349154602F069FB40B901F0F4FF5D
:1057FC004FF4165101F0E0FF01F0EEFF15E00D49FA
:10580C00204602F05BFB78B902A94FF4165341F81D
:10581C00043D2846FFF7B2FF01F052FF019901F059
:10582C0045FF01F04DFF00E0002003B030BD00BF8C
:10583C00CD830D00D4830D0070B504684368142625
:10584C00054606FB0346A64205D004F10800FFF707
:10585C00F3FF1434F7E72868FFF77CFA284670BD8D
:10586C0070B504684368054604EB0316A64204D0E1
:10587C00204601F0D8FA1034F8E72868FFF76AFAE6
:10588C00284670BD10B504460C30FFF7D5FF2046F6
:10589C00FFF7E6FF204610BD10B5044B044640F858
:1058AC00043BFFF7EFFF204610BD00BFC4800D0086
:1058BC0010B50446FFF7F0FF2046242102F0D1F882
:1058CC00204610BD10B5034B03600446FFF7E4FF00
:1058DC00204610BDA0830D0010B50446FFF7F2FF63
:1058EC002046242102F0BDF8204610BD10B50368F7
:1058FC0004461868FEF7A8FF204610BD2DE9F04FAE
:10590C009B461B4B5B68C3F3080385B082460E466F
:10591C00904653BBFFF7C0FE044624300390FFF7BC
:10592C00E5FD237BF3B90123237325686368F6B285
:10593C0005EB83094D4513D055F8047B4146381DC2
:10594C00FFF730FE8642F5D33B68CDF800B09B687C
:10595C009E4638464346324651467746B847E9E7B5
:10596C000023237303A8FFF7C1FF05B0BDE8F08F38
:10597C0000ED00E02DE9F74F9946194B5B68C3F336
:10598C00080307468846164633BBFFF785FE0446D8
:10599C0024300190FFF7AAFD237BD3B90123237395
:1059AC00256863685FFA86FB05EB830A55450ED0C4
:1059BC0055F8046B4946301DFFF7F4FD8345F5D3CC
:1059CC0033684246DB68394630469847EEE7002399
:1059DC00237301A8FFF78AFF03B0BDE8F08F00BF67
:1059EC0000ED00E02DE9F341154B5B68C3F30803B0
:1059FC0004468846FBB9FFF74FFE0646243001905B
:105A0C00FFF774FD96E8A000462605EB8707AF422A
:105A1C0007D101A8FFF76AFFB442B4BF00200120F0
:105A2C000AE055F8040B41460430FFF7BBFD8642F3
:105A3C00A8BF0646EBE7002002B0BDE8F08100BF2E
:105A4C0000ED00E070B503684268044603EB820287
:105A5C009A4218460ED006680D68AE4203F1040354
:105A6C00F6D1011D521A02F08BF96368013B636099
:105A7C00012070BD002070BD1FB50446243001917B
:105A8C000390FFF733FD01A92046FFF7DBFF20B998
:105A9C0003A8FFF72BFF04B010BD6368002BF7D1F0
:105AAC00FFF724FEF4E770B5056943691826044630
:105ABC0006FB0356AE4215D005F110012046FFF748
:105ACC00C1FF63680BB9FFF711FEE0692969036830
:105ADC00DB689847696919B1206A0368DB689847E5
:105AEC001835E7E725696369182606FB0356B542A6
:105AFC0004D0284601F097F91835F8E700236361C4
:105B0C0070BD73B5044602ADFFF7F0FD04F124003F
:105B1C0045F8040DFFF7EAFC2046FFF7C4FF2846C2
:105B2C00FFF7E4FE25696369182606FB0356B542A8
:105B3C0004D0284601F077F91835F8E72069FFF70B
:105B4C0009F92068FFF706F9204602B070BD03681A
:105B5C000A6802600B6043684A6842604B60836865
:105B6C008A6882608B60704710B50023044603601E
:105B7C0043608360FFF7EBFF204610BD8842F8B509
:105B8C000446164625D9904224D2551A143D2C446D
:105B9C00A1F11407A2F10C050026A5F108039F4200
:105BAC0037D084B155F8083C236035F8043CA38009
:105BBC0035F9023CE380A660E6602661294604F1D3
:105BCC000800FFF7C4FF2846FFF736FE143C143DCF
:105BDC00E3E71ED001F108050027A5F108039E425A
:105BEC0017D084B155F8083C236035F8043CA380E9
:105BFC0035F9023CE380A760E7602761294604F190
:105C0C000800FFF7A4FF2846FFF716FE14341435DE
:105C1C00E3E7F8BDF8B5456883689D4204460E4637
:105C2C0017460EDB0135002D05DDA9000068FFF7D6
:105C3C0099F820B9F8BD0068FFF78CF800202060B7
:105C4C00A5602568626805EB860105EB8202521A95
:105C5C00081D02F095F845F82670636801336360FF
:105C6C000120F8BD37B5044624300D460190FFF7EE
:105C7C003DFC2368616803EB810083421A4609D01E
:105C8C001268AA4203F10403F7D101A8FFF72EFE14
:105C9C0000250EE02A462046FFF7BCFF05460028EB
:105CAC00F3D06368012B01D1FFF714FD01A8FFF7B6
:105CBC001DFE284603B030BD8842F8B506460C469A
:105CCC00154614D9904213D2A2F110056C1AA1F109
:105CDC0010070444AF4218D01CB12946204601F0ED
:105CEC0092F8284601F09FF8103D103CF2E70CD0DA
:105CFC00AC420AD01EB12146304601F084F8204651
:105D0C0001F091F810341036F2E7F8BD70B50E1EA4
:105D1C0005460BDD3001FFF715F8044670B195E828
:105D2C00060001EB0212FFF7C7FF00E00024286811
:105D3C00FFF710F82C60AE60012070BD70BD2DE92E
:105D4C00F04F002395B09246462203604360836077
:105D5C00C3600361436102760291DAF80410089380
:105D6C009942054609930A9340F39D8008A8FFF7D2
:105D7C00CDFF002840F097808EE021460BA801F063
:105D8C0042F80BA90FA8099E01F03DF809990A9B4E
:105D9C009942C0F2CE80013108A8FFF7B7FF002866
:105DAC0040F0C7800FA801F03EF80BA801F03BF8BB
:105DBC001434A742E1D100260B960C960D96B146F1
:105DCC00099B9E4280F2A8803301089AD35806930F
:105DDC00002B00F09F8014237343CDF81C9001938B
:105DEC000BAC07A906A8FFF730FB0746002800F00C
:105DFC00918014AB014603F8399D079A2046FFF7B2
:105E0C0091FB9DF817800090B8F1000F53D1BDF8AD
:105E1C001C30ADF840304FF6FF730F97ADF84230A1
:105E2C00CDF84480CDF84880CDF84C806768A368E5
:105E3C009F424FDA009BD4F800B0616814225343A0
:105E4C000BEB030702FB01B207F114003946039375
:105E5C00FFF794FEA7B1039B0F9A4BF80320BDF8F4
:105E6C004030BB80BDF94230FB80C7F80890C7F8C2
:105E7C000C90C7F8109011A907F10800FFF767FE06
:105E8C0063680133636011A8FFF7D6FCB8F1000F0B
:105E9C0011D00BA8FFF7D0FC08A8FFF7E1FC2846AF
:105EAC0015B0BDE8F08FDAF80040DAF804301427AA
:105EBC0007FB03477DE72368009A142404FB023494
:105ECC00069B1B7823BBDAF80030019A13441B7C29
:105EDC00E3801DE00137002F0FDD142303FB07F0D7
:105EEC000393FEF72FFF834678B194E80600039BDB
:105EFC0003FB0212FFF742FE00E0C3462068FEF7E8
:105F0C0029FFC4F800B0A76094E74FF00108BAE786
:105F1C00083466E7013653E708A92846FFF717FE51
:105F2C000BA905F10C00FFF712FE9DF808302B763B
:105F3C00AFE7089B099A03EB061603EB02123146F6
:105F4C0006F11000FFF7B8FE1EB10FA9304600F0A5
:105F5C005AFF099B0133099324E700007FB50446DF
:105F6C00094B44F8043B05460E4601A81146FEF7C2
:105F7C00ABFB01AA31462046FFF7E1FE01A8FEF774
:105F8C0062FA284604B070BDC4800D00F0B50F460F
:105F9C008BB02B49109C384616461D4601F08EFFDF
:105FAC0028BB002C49D0294601A8FFF7DDFD254967
:105FBC00242001F061FD0546B8B101A904A8FFF742
:105FCC00D3FD04A907A8FEF77FFB07AA3146284694
:105FDC00FFF7C4FF07A8FEF736FA1B4B2B602C62A9
:105FEC0004A8FEF730FA194B2B6001A81FE01849E2
:105FFC00384601F063FFF0B9FCB1294604A8FFF75D
:10600C00B3FD1049242001F037FD054670B104A9F9
:10601C0007A8FEF759FB07AA31462846FFF79EFF53
:10602C0007A8FEF710FA084B2B602C6204A8FEF7A9
:10603C000AFA284602E0002000E020460BB0F0BD32
:10604C0026840D0078860D00AC840D00A0830D0015
:10605C002A840D00014B024A1A607047D8E30320D2
:10606C003B840D002DE9F047089DD0F820900446A4
:10607C000E461746984601F0AFFB814505D15A48AC
:10608C0000F035FD002840F0AC802B791B0705D5BE
:10609C006B69564A206A002100F032FEB8F1000FFD
:1060AC000DD05B212046FFF732FA41462046FFF720
:1060BC0020FA23684E49DB680222204698472B7948
:1060CC00D90725D5D5F808802F21404601F029FFA6
:1060DC0008B100F1010841462046FFF70AFA2B7976
:1060EC009A0709D53A212046FFF711FAEB68414A85
:1060FC00206A002100F004FE2B7913F0040F2368B2
:10610C0018BF3D49DB6808BF3C490222204698472E
:10611C002B795B0718D529690A46134613F8010B2E
:10612C0038B1202801D1194601E0282801D01A469F
:10613C00F3E72368521ADB682046984723683049F6
:10614C00DB6804222046984700213846FEF754FDB0
:10615C0001462046FFF7CDF923682849DB68022267
:10616C00204698471EB131462046FFF7C2F92B79DD
:10617C0013F0300F2DD023682249DB682046022211
:10618C0098472B79D8060BD523681F49DB68072263
:10619C0020469847AB691D4A206A002100F0B0FDEB
:1061AC002B79990611D5DA0605D523681249DB68D7
:1061BC0002222046984723681549DB6820460A22AC
:1061CC009847E9692046FFF794F95D212046FFF7CF
:1061DC009EF923680F49DB6820460222BDE8F04790
:1061EC001847BDE8F08700BFB0E503203F840D00E1
:1061FC0046840D0029850D0049840D004E840D0048
:10620C004C840D0051840D0054840D005C840D00F1
:10621C005F840D006A840D002DE9F04385B0D0F841
:10622C0020800C9C06460F4691461D4601F0D4FA80
:10623C00804505D14A4800F05AFC002840F08C807B
:10624C00336A484A01924FF0000801A803938DF875
:10625C000880FEF7F0FF41464846FEF7CDFC424968
:10626C008046012201A8FFF76BF84146FFF731F990
:10627C003FB13E49012201A8FFF762F83946FFF70A
:10628C0028F93DB13A49012201A8FFF759F82946EE
:10629C00FFF71FF92379DF070ED5A5682F212846B4
:1062AC0001F03FFE00B1451C3249012201A8FFF765
:1062BC0047F82946FFF70DF923799D0707D52E4995
:1062CC00022201A8FFF73CF8E168FEF7C1FF237931
:1062DC00580716D525692F463B4613F8012B3AB1C2
:1062EC00202A01D11D4601E0282A01D01F46F3E7E0
:1062FC000222224901A8FFF723F87A1B2946FFF74F
:10630C002EF82379190707D51D49012201A8FFF79B
:10631C0017F86169FEF7AEFF2379DA0608D5042277
:10632C0018490DEB0200FFF70BF8A169FEF790FF7F
:10633C0023799B0607D51449062201A8FFF700F81C
:10634C00E169FFF7C6F801A8FEF75FFF306A0F4955
:10635C0003680222DB68984705B0BDE8F08300BFF4
:10636C00B0E5032088830D00D2830D00E5830D007A
:10637C009E840D000C810D006D840D0070840D0049
:10638C0005810D0073840D0078840D006A840D0066
:10639C0010B501230374836804460BB1C06806E092
:1063AC00006828B183680BB901F077FBC368984784
:1063BC00012363740020BDE81040FEF74DBA0022A3
:1063CC0011464068FEF7A6BC002211464068FEF755
:1063DC00B1BC00224068FEF7A5BC002281F001018F
:1063EC004068FEF78FBC00231A4601214068FEF777
:1063FC0081BC00231A4619464068FEF773BC002284
:10640C0011464068FEF766BC002211464068FEF754
:10641C0051BC002202214068FEF754BC00231A46EE
:10642C004068FEF73FBC38B5054688B104684CB1EE
:10643C00A3681BB103222146204698471021204611
:10644C0001F00FFB28461421BDE8384001F009BBD0
:10645C0038BD10B103685B681847704710B5036806
:10646C000446BBB15868FEF7BFF978B923685A7C6B
:10647C0012B95868FEF7C0F923685868FEF7C4F9DA
:10648C0020680023236028B1FFF7CDFF206808B1F6
:10649C00FFF7C9FF204610BD38B50C4B036004460E
:1064AC00D0F8CC0108B1FDF7F6FDD4F8C45135B1E4
:1064BC002846FFF7D3FF0421284601F0D2FAA06842
:1064CC0008B1FFF7C6FF204638BD00BFDC840D00C5
:1064DC002DE9F84F0B9F9DF828B00646884691464B
:1064EC009A4604460025236C4B4529D1636C5345D1
:1064FC0026D194F848305B4522D14021404601F02A
:10650C0004FD41460246204601F0EAFCC0B96FB1D9
:10651C000C21384601F0F9FC024638B1582303FB34
:10652C0005603946493001F0DBFC04E0582000FBE3
:10653C00056595F84900B0FA80F04009BDE8F88F80
:10654C000135052D04F15804CDD10020BDE8F88F9C
:10655C002DE9F04F85B007469DF838A00F9E0196A7
:10656C00CDF800A0894602920393FFF7B1FF0028F3
:10657C003CD10446582303FB0475D5F84080B8F190
:10658C00000F2ED14021484601F0BFFC49468346FE
:10659C000246284601F0E9FBCBF14002414605EBEF
:1065AC000B0001F008FC029B2B64039B6B6485F8C9
:1065BC0049802EB10C21304601F0A7FC054600E0C5
:1065CC0035465820444338193C442A463146493014
:1065DC00254401F0CAFB002085F8490084F848A046
:1065EC0005E00134052CC6D1024800E0002005B0BE
:1065FC00BDE8F08FFCFEFFFF07B50023019300936D
:10660C00FFF7A6FF03B05DF804FB2DE9F341044648
:10661C0008460D46904601F05BFC04F5DC76074617
:10662C00236CABB14021204601F06FFC874202463F
:10663C000BD32946204601F089FB30B90090434624
:10664C002A4621465820FEF713FB5834B442E7D1B2
:10665C0002B0BDE8F081000030B58DB004461122C7
:10666C00002101A801F0A7FB062301AA09498DF816
:10667C0014300A20FEF7B0F907AD01A906A8FEF701
:10668C00CBFC0FCD04340FC42B68237000200DB04D
:10669C0030BD00BF08850D002DE9F041054600F521
:1066AC00E0768AB03046FEF721FF2C68D5F8C001A1
:1066BC00FEF7CAF8002C63D0D5F8C43163B1236857
:1066CC00D5F8C4111F6B20464FF47A734FF49A62BD
:1066DC00B847041E13DC56E02D494FF49A6001F0C4
:1066EC00DAF9D5F8C431C5F8C40113B11846FDF771
:1066FC00D2FCD5F8C431002BE1D1264844E020234C
:10670C00254A029300920023019402AA2349039381
:10671C000120FEF769FAD5F8C4315F1C1B786BBBFE
:10672C00013C2146384601F0F0FB38B3241A002C0A
:10673C0007EB000822DD3B5C03BB013C0ED008F1EB
:10674C0001082146404601F0E0FB241A002C15DD1F
:10675C0018F8003093B9012C02D00FE0DFF8448018
:10676C003046FEF7C3FE42463946281DFFF74DFF63
:10677C00D5F8C001FEF768F8002005E0084803E0F2
:10678C006420FEF779F820460AB0BDE8F08100BF1E
:10679C0078860D00FCFEFFFF1C850D0015850D0095
:1067AC00E8FEFFFF29820D0010B50446BFF35F8F92
:1067BC0094F8C831BFF35F8F1BB92046FFF76CFF0D
:1067CC00F4E710BD10B50468016044B12046FFF732
:1067DC0045FE20460421BDE8104001F042B910BD31
:1067EC002DE9F04105468AB000F5E070FEF77EFE1B
:1067FC002C68002C7BD14C20FDF747FC064600286A
:10680C0073D000F04FFE22464FF49A61304600F0F0
:10681C0079FE0AA93A4801F8194DFEF7ADF833682C
:10682C009DF80F201B6A49F269013046984704A86D
:10683C00FEF7E4FB04A8FFF70FFF00284ADB04A9CE
:10684C00304600F0CBFE002844DBBFF35F8F85F8A9
:10685C00C841BFF35F8F2B49042001F00DF905F5FA
:10686C00DE78074648B32749142001F005F928B112
:10687C000474046044608460C46044743860B0B1D3
:10688C00214B83603B682149DD6038684FF44063DD
:10689C008DE8090003221E4B0430FDF79DFF30B933
:1068AC003B681B7C4BB90120FDF7E6FFF8E7386825
:1068BC0000233B6008B1FFF7B6FD39464046FFF7B1
:1068CC0081FFD5F8BC313BB128682E6030B1FFF7A1
:1068DC00C0FD0CE0044603E00E4C01E0044607E06A
:1068EC0036B13046FFF7B5FD02E00A4C00E000245B
:1068FC00D5F8C001FDF7A8FF20460AB0BDE8F0812D
:10690C002C850D0078860D00B5670D0030850D00C7
:10691C009D630D00FCFEFFFF2DE9F04705468CB092
:10692C0016460F4609B10B780BB9354C64E0084696
:10693C0001F0CEFA8046002E5CD0304601F0C8FA49
:10694C00441C08F102032344B3F59A6F4FD805F5A4
:10695C00E070FEF7CBFD2846FFF742FF002840DB36
:10696C006846FEF74BFB6846FFF776FE002838DBDF
:10697C00D5F800A0DAF800300DF1040CD3F83890FB
:10698C00204B0693BCE80F000DF11C0EAEE80F0077
:10699C00DCF800308EF8003049F2690206A9504646
:1069AC00C84700281DDB002328688DF818300368C1
:1069BC000122DB6806A998472868036808F10102E0
:1069CC00DB68394698472CB1286803682246DB6897
:1069DC0031469847286803681B6C984700EAE074B6
:1069EC0000E00446D5F8C001FDF72EFF04E06FF07F
:1069FC00BD0401E03446A4E720460CB0BDE8F087A6
:106A0C00F2FEFFFF54830D00F8B5054600F5E0706B
:106A1C000E461746FEF76AFD2846FFF7E1FE0028F2
:106A2C0007DB3A463146281DFFF7E6FD00EAE07425
:106A3C0000E00446D5F8C001FDF706FF2046F8BD7E
:106A4C0038B50E4C0E4B23600025022304F5E47080
:106A5C006360A560C4F8C451C4F8C851FDF7E4FEE6
:106A6C00084BC4F8CC5184F8D05123602046064A18
:106A7C000649BDE8384000F0EFBF00BFDCE303205F
:106A8C0040850D00DC840D0070E30320A5640D002F
:106A9C0000231A464068FEF705B90022022140681F
:106AAC00FEF710B9002211464068FEF703B9002228
:106ABC0011464068FEF70EB900231A461946406885
:106ACC00FEF710B900231A4619464068FEF712B9B2
:106ADC00002281F001014068FEF714B900224068E1
:106AEC00FEF720B9002211464068FEF723B90022B8
:106AFC0011464068FEF70EB92DE9F043002495B01D
:106B0C0016460D460746FEF779FA214620220CA8B8
:106B1C00009401F050F940230C9321466B460CAACB
:106B2C003046FDF781FF0446002844D1024601217E
:106B3C006868FEF7CFF80221804622466868FEF7A7
:106B4C00C9F8009E81462146002E34D0002932D14E
:106B5C007368022B02D00A2B09D02AE0B8F1000F7F
:106B6C0027D0716938460431FEF78BFA20E0B9F171
:106B7C00000F1ED07469112201A801F01CF9062324
:106B8C008DF8143001AD04F10803183418685968F5
:106B9C002A4603C20833A3421546F7D101A906A819
:106BAC0007ADFEF739FA0FCD3C1D0FC42B682370CF
:106BBC000121F669C8E70098FDF72EFF384615B09D
:106BCC00BDE8F083024B034A1A6000225A607047FA
:106BDC00B0E5032040850D00F8B506460D468F182C
:106BEC000024BD420CD0336815F8011B9B6830465D
:106BFC009847002801DB0444F3E7002C08BF044647
:106C0C002046F8BD70B505460C46084649B101F062
:106C1C005FF92B68024621462846DB68BDE87040C8
:106C2C00184770BD08B5FFF7EDFF08BD03689B68FA
:106C3C00184738B50D210546FFF7F8FF0A21044621
:106C4C002846FFF7F3FF204438BD38B50546FFF75B
:106C5C00D9FF04462846FFF7ECFF204438BD30B579
:106C6C008BB00B4600218DF82410012A98BF0A2204
:106C7C000DF12304B3FBF2F505FB123303F0FF0314
:106C8C00092B94BF30333733DBB2214604F801397A
:106C9C002B46002DEED1FFF7B5FF0BB030BD10B475
:106CAC002AB903685DF8044B9B68C9B21847D2B285
:106CBC005DF8044BFFF7D3BFFFF7F1BF2DE9F041AF
:106CCC0007460E4615462AB90368C9B29B68BDE84B
:106CDC00F04118470A2A02D1002901DA04E0D2B2A5
:106CEC00BDE8F041FFF7BBBF2D21FFF79FFF2A4600
:106CFC00044671423846FFF7B2FF2044BDE8F081EC
:106D0C000CB42DE9F04387B000AF07F13804054609
:106D1C0054F8049B3C600E4623464A461421381D09
:106D2C00FEF728F8132805D8391D2846FFF76AFF07
:106D3C00044613E000F1080323F00703E846ADEB2B
:106D4C00030D411C23464A4668463C60FEF712F888
:106D5C0069462846FFF756FF0446C5461EB128462D
:106D6C00FFF767FF044420461C37BD46BDE8F043DF
:106D7C0002B0704710B5044630B101F04DF890FBED
:106D8C00F4F303FB140010BD10BD884210B504468B
:106D9C0004DA081AFFF7EEFF204410BD10BD10B541
:106DAC000446FEF73BF8204610BD00000348044A99
:106DBC0004490023836000F04FBE00BFB8E50320F8
:106DCC0070E30320AB6D0D00704710B51021044625
:106DDC0000F047FE204610BD70B5084B036004461A
:106DEC0000250E4640F80C5FFDF716FD3046267167
:106DFC00FDF752FEA560204670BD00BF74850D00E6
:106E0C000079FDF751BE0023036043608360037378
:106E1C0010B50C6804604C6844608C6884600B602E
:106E2C004B608B6010BD10B504460068FDF792FFF7
:106E3C00204610BD10B50446006808B1FDF78AFF66
:106E4C0000232360A360636010BD38B504460D4673
:106E5C0000680131FDF786FF10B184E821000120A4
:106E6C0038BD10B50368044613B143688B4207D292
:106E7C002046FFF7EAFF20B1A3680BB92268137014
:106E8C00012010BD70B50E46114604461546FFF79D
:106E9C00E8FF18B92046FFF7CDFF09E02A46314636
:106EAC00A560206800F061FF2268A3680021D1541E
:106EBC00204670BD38B500230446036043608360F0
:106ECC0003730D4639B1084601F002F82946024613
:106EDC002046FFF7D7FF204638BD884210B50B4639
:106EEC00044607D0096819B19A68FFF7CBFF01E097
:106EFC00FFF7A0FF204610BD10B500230446036029
:106F0C00436083600373FFF7E8FF204610BD08B5AC
:106F1C0082680B4612B919B9012008BD11B9036872
:106F2C00187802E0006800F0C9FFB0FA80F0400960
:106F3C0008BD0000044B00204FF6FF7218705880FB
:106F4C009A80FDF769BE00BFC8E50320024B1A68A2
:106F5C00024B1A60704700BF04E30320D0E5032006
:106F6C0010B40468246BA4465DF8044B60470368B6
:106F7C009B6C1847808E7047028FC08E101A70471A
:106F8C0013B502AB026803F8011DD468194601223F
:106F9C00A04702B010BD10B503681B6904469847A2
:106FAC0028B1E38EE26B591CE186D05C10BD4FF02A
:106FBC00FF3010BD10B503681B690446984718B123
:106FCC00E38EE26BD05C10BD4FF0FF3010BD70470C
:106FDC0010B403460846DC6BD98E1A8F0368521A1C
:106FEC00DB6821445DF8044B1847A0F11000FFF753
:106FFC00EFBFF0B503688DB01C265B6A04460F46E4
:10700C001546984701233246002105A8029300F04B
:10701C00D2FE8DF8146038460A268DF81560FDF7FF
:10702C00F3FC1122ADF8160002213046FDF72CFDC1
:10703C000028606124DB0422009202AB40F6FF7151
:10704C00FDF702FDE0B995B10390ADF8100003A96E
:10705C00E8B2FDF799FC98B90623009341F20B02B4
:10706C0003AB40F6FF716069FDF7EEFC40B91C22E2
:10707C0005A96069FDF7E0FC10B96564012004E026
:10708C00236820465B6A984700200DB0F0BD10B510
:10709C0004464069002801DBFDF7DEFC4FF0FF33AE
:1070AC0063610023E386238710BD38B5C36B0546A7
:1070BC00C08E13B12C6C241A00E01C46944228BFDD
:1070CC0014462246184400F050FEEB8E2344EB8607
:1070DC00204638BD70B503681B6904460E4615463C
:1070EC00984788B1236820461B699847E38EE16B6B
:1070FC008542A8BF054619442A46304600F035FEA5
:10710C00E38E2B44E38601E04FF0FF35284670BD3B
:10711C0070B50446054B44F8043B01F120050646C6
:10712C000FCD0FC42B682370304670BD54830D00F7
:10713C00F0B59446026889B0976A0A4A02921D1DFE
:10714C008E4606460FCD03AC0FC42B682370BDF8DA
:10715C0038300093624602AB71463046B84709B0EE
:10716C00F0BD00BF54830D00F0B50368B0F836E0F5
:10717C009F6A0D4B89B000F12006044602930FCE96
:10718C0003AD0FC533682B70A38E0093724602AB10
:10719C00E16B2046B84723680546DB6920469847D3
:1071AC00284609B0F0BD00BF54830D00F0B54378FC
:1071BC00022B8DB005460C46174601D1011D33E05C
:1071CC000A2B35D11122002101A800F0F4FDAB6887
:1071DC0043B9EB6833B94FF6FF702E69FDF704FC29
:1071EC0086421FD005F1080301AE05F1180E186890
:1071FC005968324603C2083373451646F7D1062345
:10720C0001A906A807AE8DF81430FDF705FF0FCEC7
:10721C0004340FC43368237057B16888FDF7ECFB56
:10722C00388005E005F114012046FDF72AFFF3E74D
:10723C000DB0F0BD2DE9F0418EB00EAB0025064629
:10724C001746084643F8345D2A462946FDF7ECFB01
:10725C0000281FDB019BFBB15B69EBB102A8FDF7BA
:10726C00CDFE019B2A46586902A9FFF79FFF02A891
:10727C00FDF7E4FE80B1336803ADD3F838800B4BD7
:10728C0008930FCD09AC0FC42B6823703A4608A99C
:10729C003046C047044601E04FF0FF340198FDF73B
:1072AC00BBFB20460EB0BDE8F08100BF54830D003F
:1072BC002DE9F047D0F81480B8F1000F8CB00546DA
:1072CC000C461746994600DB11B94FF0FF3035E0FC
:1072DC004FF01C0A05AE52460021304600F06BFD03
:1072EC00CDF808A0B9F1000F14D04FF47A72B9FBA5
:1072FC00F2F1039102FB11914A430823049200938B
:10730C0041F2060203AB40F6FF714046FDF79CFBD1
:10731C0008B113E0082002AB019321460346009606
:10732C003A466869FDF7A0FB041E06DB05F1340242
:10733C0005F11C013046FFF739FF20460CB0BDE8C3
:10734C00F08738B5054614462B7D062B084611D11F
:10735C001C2313700A235370FDF756FB083424F8D2
:10736C00060C2B1D143553F8042B44F8042BAB429C
:10737C00F9D138BD042B0AD110231370022353709A
:10738C00FDF742FB60806868FDF72EFB606038BD3E
:10739C002DE9F0438BB003AC1C25994606460F46ED
:1073AC00904600212A46204600F005FD2246BDF8F5
:1073BC0048104846FFF7C5FF9DF80D3043B18DE8E6
:1073CC0030000023424639467069FDF755FB01E059
:1073DC004FF0FF300BB0BDE8F083F0B591B00C4628
:1073EC0006460021154609A81C221F4600F0E3FCA6
:1073FC0009AA00212046FFF7A4FF9DF82530022B97
:10740C002ED1002305930A9B0493DDB102A92846D3
:10741C00FDF7C2FAB0B910A941F8340D0298FDF786
:10742C00C3FA60B9039B53B1DA6812685178022928
:10743C0003D152680AB1059201E01B68F3E7039887
:10744C00FDF7BAFA002F4FF00803009318BF032280
:10745C0004AB08BF042200213046FDF7F5FA1EE00C
:10746C000A2B1AD104AC14220021204600F0A3FCF4
:10747C000BAB0FCB002F84E80F004FF014030093DD
:10748C0018BF0C22234608BF0D222921304608952F
:10749C00FDF7DAFA00EAE07001E04FF0FF3011B0CE
:1074AC00F0BD000038B54FF47A7383600B4B03F1D9
:1074BC0008026C33002503614FF0FF33044645602E
:1074CC00026043611C30FDF799FD4FF40073E586B3
:1074DC002587E56323646564204638BDA8850D00C7
:1074EC0010B590F84830044623B1C06B10B101219F
:1074FC0000F0B7FA0023E36384F848302364E38692
:10750C00238710BD70B5044616460D46FFF7E8FFFD
:10751C000023E66323643EB935B12846FCF7B7FD7A
:10752C000123E06384F84830E36B03B12564206CDD
:10753C00003018BF012070BDF8B51746C26B054668
:10754C000C461AB9016C09B1FFF7DCFF04340FCCFF
:10755C0005F120060FC6236833700023AF86EB8637
:10756C002B87286CF8BD70B5C26B04460E461AB951
:10757C00016C09B1FFF7C6FFE16B0022E28622879E
:10758C0049B1226C3AB1236820461D6B3346A8479B
:10759C000028C8BF2087236820461B69BDE87040BF
:1075AC001847000010B5074B03F108026C33044672
:1075BC0002600361FFF76BFD2046FFF791FF204649
:1075CC0010BD00BFA8850D0010B50446FFF7EAFFFB
:1075DC0020464C2100F045FA204610BD0246406979
:1075EC00002804DB012392F84420FFF7F6BE4FF08D
:1075FC00FF30704770474174704708B5007CFDF749
:10760C009BFA20EAE07008BD08B5007CFDF76CFA27
:10761C0020EAE07008BD08B5007CFDF775FA30EA89
:10762C00200028BF4FF0FF3008BD08B5007CFDF7E7
:10763C0063FA30EA200028BF4FF0FF3008BD007C11
:10764C00FDF76ABA10B51421044600F00AFA204678
:10765C0010BD70B5457C04460E4625B9007CFDF77F
:10766C006BFA002805DD3146207CBDE87040FDF743
:10767C0033BA284670BD000010B5044608461146C2
:10768C00002262604FF47A72A260054A22600122E5
:10769C00207462741A46FDF70FFA204610BD00BF25
:1076AC0020860D000023007CFDF74EBA0022FFF768
:1076BC00F9BF007CFDF708BA007CFDF735BA000075
:1076CC0038B50C4D296811F0010411D12846FCF78E
:1076DC00EFFC68B1084A094B09482146FFF7CCFF7B
:1076EC002846FCF7EAFC074A0749054800F0B4F9BC
:1076FC00034838BD6CE6032070E60320E8E5032060
:10770C00D4E5032070E3032001760D00417470472B
:10771C00704708B50021007CFDF746FA30EA2000DE
:10772C0028BF4FF0FF3008BD08B50121007CFDF7E4
:10773C003BFA30EA200028BF4FF0FF3008BD08B5F7
:10774C00007CFDF729FA20EAE07008BD08B5007C42
:10775C00FDF71AFA20EAE07008BD007CFDF734BA98
:10776C0010B51421044600F07CF9204610BD38B544
:10777C000446007C0D46FDF70FFA002801DC607C06
:10778C0028B12946207CFDF717FA20EAE07038BDB5
:10779C0010B50446002363604FF47A73A360054B65
:1077AC00236001230846217463741146FDF7D4F954
:1077BC00204610BD50860D000022007CFDF7D4B988
:1077CC00007CFDF7D9B910B514220446002100F055
:1077DC00F2FA204610BD000030B50E4D87B001A85E
:1077EC00FFF7F1FF296811F0010410D12846FCF7CE
:1077FC005FFC60B101AA21460748FFF7C9FF284684
:10780C00FCF75BFC054A0649034800F025F90248E1
:10781C0007B030BDF4E60320F8E6032070E3032044
:10782C001D770D0008B50F4B33B1FFF7D5FF03687B
:10783C001B69984700280DDC0B4B33B1FFF740FF59
:10784C0003681B699847002807DC084B43B1AFF36A
:10785C00008008BDAFF30080EEE7AFF30080F4E7E3
:10786C0008BD00BF00000000000000000000000088
:10787C0008B5FFF7D7FFFDF70FF8014B186008BDEF
:10788C0010E7032007B5002300931A466FF0770129
:10789C00FDF7E4F903B05DF804FB000007B543887D
:1078AC000A2B08D0502B09D1094B1B683BB103B0F4
:1078BC005DF804EB1847FFF7E5FF06E000230093A3
:1078CC001A466FF07701FDF7C9F903B05DF804FBB8
:1078DC000CE7032010B5FCF7C7FF044600F074FA60
:1078EC00074B13B12046AFF3008000210448FDF78D
:1078FC00D1F900210348BDE81040FDF7A5B900BF40
:10790C0000000000A9780D0010B504460F48FFF7E1
:10791C0077FA28B1A4F10B03022B01D8002010BD7B
:10792C0000F058F8FDF72CFB08B1012CF6D9FFF745
:10793C00C7FEFFF7C1FE18B1A4F10903012BEDD965
:10794C001E2C8CBF0020012010BD00BF2CE7032093
:10795C001E2838B504460D460AD8FF2908D0FFF773
:10796C00D3FF28B129462046BDE83840FCF7ACBF10
:10797C0038BD38B504460D46FCF7AEFFFF2810D0D5
:10798C00062804D84D2323FA00F0C30709D4204657
:10799C00FFF7BAFF28B129462046BDE83840FCF76E
:1079AC00A3BF38BD0D2810B504469CBF0E34A4B23D
:1079BC002046FFF7A9FF50B103212046FCF77CFFBE
:1079CC00032804D12046BDE81040FCF795BF0020E9
:1079DC0010BD000038B50B4D296811F001040FD112
:1079EC002846FCF765FB58B121460748FDF7B6FA67
:1079FC002846FCF762FB054A0549034800F02CF8C1
:107A0C00014838BD14E7032018E7032070E3032076
:107A1C00114F0D0070B50C4C0C4E0D4D0021204635
:107A2C00FFF7DAF920460B4C3246294600F014F8E1
:107A3C0001212046FFF7D0F9324629462046BDE801
:107A4C00704000F009B800BF2CE7032070E303205E
:107A5C00D56D0D003CE703200B460146184600F09F
:107A6C0067B9FCF716BB0000024B1868BFF35F8FB9
:107A7C00704700BF4CE7032010B5002814BF044624
:107A8C0001242046FDF75EF920B9FFF7EDFF08B1A0
:107A9C008047F6E710BDFFF7EFBF08B5FDF772F9A9
:107AAC00244B1A68D0075CBF01221A60224B1A685B
:107ABC00D1075CBF01221A60204B1A68D2075CBF49
:107ACC0001221A601E4B1A68D0075CBF01221A6093
:107ADC001C4B1A68D1075CBF01221A601A4B1A683A
:107AEC00D2075CBF01221A60184B1A68D0075CBF22
:107AFC0001221A60164B1A68D1075CBF01221A606A
:107B0C00144B1A68D2075CBF01221A60124B1A6818
:107B1C00D0075CBF01221A60104B1A68D1075CBFFA
:107B2C0001221A600E4B1A68D2075CBF01221A6040
:107B3C00704700BF7CE7032078E7032074E703203D
:107B4C0070E703206CE7032068E7032064E7032059
:107B5C0060E703205CE7032058E7032054E7032089
:107B6C0050E70320184B1A68D1075CBF01221A603A
:107B7C00164B1A68D2075CBF01221A60144B1A68A4
:107B8C00D0075CBF01221A60124B1A68D1075CBF88
:107B9C0001221A60104B1A68D2075CBF01221A60CE
:107BAC000E4B1A68D0075CBF01221A600C4B1A6886
:107BBC00D1075CBF01221A600A4B1A68D2075CBF5E
:107BCC0001221A60704700BF9CE7032098E703204E
:107BDC0094E7032090E703208CE7032088E7032039
:107BEC0084E7032080E70320184B1A68D1075CBF99
:107BFC0001221A60164B1A68D2075CBF01221A6068
:107C0C00144B1A68D0075CBF01221A60124B1A6819
:107C1C00D1075CBF01221A60104B1A68D2075CBFF7
:107C2C0001221A600E4B1A68D0075CBF01221A6041
:107C3C000C4B1A68D1075CBF01221A600A4B1A68F8
:107C4C00D2075CBF01221A60704700BFBCE703205B
:107C5C00B8E70320B4E70320B0E70320ACE7032028
:107C6C00A8E70320A4E70320A0E70320244B1A680D
:107C7C00D0075CBF01221A60224B1A68D1075CBF87
:107C8C0001221A60204B1A68D2075CBF01221A60CD
:107C9C001E4B1A68D0075CBF01221A601C4B1A6875
:107CAC00D1075CBF01221A601A4B1A68D2075CBF5D
:107CBC0001221A60184B1A68D0075CBF01221A60A7
:107CCC00164B1A68D1075CBF01221A60144B1A6854
:107CDC00D2075CBF01221A60124B1A68D0075CBF36
:107CEC0001221A60104B1A68D1075CBF01221A607E
:107CFC000E4B1A68D2075CBF01221A60704700BF96
:107D0C00ECE70320E8E70320E4E70320E0E70320A7
:107D1C00DCE70320D8E70320D4E70320D0E70320D7
:107D2C00CCE70320C8E70320C4E70320C0E7032007
:107D3C0010B5054C13462CB10A4601460220AFF390
:107D4C00008010BD204610BD0000000010B50139A8
:107D5C000244904207D010F8013B11F8014FA342A6
:107D6C00F7D0181B10BD002010BD10B5431E0A44DF
:107D7C00914204D011F8014B03F8014FF8E710BD04
:107D8C00884210B501EB020301D8421E0BE0984269
:107D9C00FBD28118D21AD34204D013F8014D01F84A
:107DAC00014DF8E710BD994204D011F8014B02F8CF
:107DBC00014FF8E710BD02440346934202D003F88A
:107DCC00011BFAE77047000038B5124B1C68A36B17
:107DDC000546D3B91820FCF7B5FF43F20E33A06368
:107DEC0003804AF6CD33438041F2342383804EF234
:107DFC006D63C3804DF6EC630381052343810B2334
:107E0C00838101220023C0E90423A36B00221D619E
:107E1C005A6138BD6CE30320194B10B51C68A36B79
:107E2C00D3B91820FCF78EFF43F20E33A063038006
:107E3C004AF6CD33438041F2342383804EF26D6396
:107E4C00C3804DF6EC630381052343810B238381AF
:107E5C0001220023C0E90423A16B0A4C0B69486979
:107E6C00094A5C4302FB0040A3FB0223013203449A
:107E7C0043F10003C1E9042323F0004010BD00BF0F
:107E8C006CE303202DF451582D7F954CC9B2034659
:107E9C0010F8012B1AB19142F9D1184670470029FC
:107EAC000CBF18460020704710B50446FFF7EEFFD4
:107EBC0018B9204600F00CF8204410BD10F8012B26
:107ECC0011F8013B012A28BF9A42F7D0D01A70470B
:107EDC00034613F8012B002AFBD1181A01387047FE
:107EEC0030B582B1451E013915F8013F11F8014F2B
:107EFC00A34206D1EC431444E04201D0002BF3D151
:107F0C001C46181B30BD104630BD10B5034601444D
:107F1C008B4204D01A785C1C0AB12346F8E7181A75
:107F2C0010BD38B503460D4641B10024294618460C
:107F3C00FFF7ACFF30B1431C0446F7E7BDE838400F
:107F4C00FFF7A4BF204638BDF0B5037863B90B78B2
:107F5C00002B18BF0020F0BD15F8012F62B114F8EA
:107F6C00017F97423046F7D00346461C007810B18B
:107F7C004D1E5C1EF0E7F0BD1846F0BD2DE9F04734
:107F8C0080464048D0F800900F463D4615F8014B0E
:107F9C0009EB0400407800F0080000F0FF0608B17F
:107FAC002F46F2E72D2C03D1BD1C7C78012603E073
:107FBC002B2C04BF7C78BD1C13B1102B0AD15BE0B9
:107FCC00302C57D1287800F0DF0058284DD16C7830
:107FDC0010230235002E14BF4FF0004C6FF0004CF4
:107FEC000027BCFBF3FA384603FB1ACC09EB040E52
:107FFC009EF801E01EF0040F01D0303C0BE01EF0A7
:10800C00030E1BD0BEF1010F0CBF4FF0370E4FF01B
:10801C00570ECEEB0404A34210DDB7F1FF3F0AD09C
:10802C00504506D801D1644503DC03FB0040012711
:10803C0001E04FF0FF3715F8014BD7E77B1C0CD153
:10804C00002E4FF0220314BF4FF000406FF00040A1
:10805C00C8F800302AB9BDE8F08706B1404272B1C9
:10806C0007B1691E1160BDE8F0873024002BB1D137
:10807C000823AFE70A23ADE7302CA3D0AAE7BDE86D
:10808C00F08700BF08E3032013460A460146024866
:10809C000068FFF773BF00BF6CE303201D400D00A9
:1080AC0059400D0085400D0089400D000000000076
:1080BC0000000000000000000000000000000000B4
:1080CC00A9400D00CD400D00000000000000000094
:1080DC003D410D0071410D0071600D00CF400D0050
:1080EC00504F574552204F464600000052455345CD
:1080FC005400506F7765724E6574006F6E006F663A
:10810C006600746F676C50777200726573657400EB
:10811C005831202D20504F574552204F4646000ACB
:10812C00416C6572742073656E7420746F206D657C
:10813C007368206E6574776F726B2E000A576169D5
:10814C0074696E6720666F7220706F7765722E2E61
:10815C002E0A00436974793A58656E6F6E31000AC5
:10816C000A2D2D2D2D2D2D2D2D2D2D2D2D2D2D2D56
:10817C002D2D2D2D2D2D2D2D2D2D2D2D2D2D2D2D23
:10818C002D2D2D0A00506F776572206973204F4E8C
:10819C000A416E616C6F6720352072656164696E8F
:1081AC00673A2000506F776572206973204F4646FE
:1081BC000A416E616C6F6720342072656164696E70
:1081CC00673A20000A506F77657220737570706C77
:1081DC0069656420627920612067726163696F75DB
:1081EC0073206E65696768626F72000A0A4F6F7060
:1081FC00732120506C656173652070617920243582
:10820C002042544320666F72206D6520746F207776
:10821C006F726B20616761696E21200A0A0041311F
:10822C00000A0A5F5F5F5F5F5F5F5F5F5F5F5F5F5B
:10823C005F5F5F5F000A5245524F5554494E4720CD
:10824C00504F57455220544F204D415220434954D2
:10825C00592C2049443A202573005831202D2053A5
:10826C005550504C59494E4720504F574552000AD3
:10827C005F5F5F5F5F5F5F5F5F5F5F5F5F5F5F5F02
:10828C005F5F5F005832000A5245524F5554494EB9
:10829C004720504F57455220544F204152454E4194
:1082AC0020434954592C2049443A202573000A256F
:1082BC007320486173204E6F20506F7765722121B7
:1082CC00200A005831202D20525453005831202DB3
:1082DC0020413120435453005831202D2058322056
:1082EC00435453000000000000000000F34E0D004A
:1082FC00E94E0D00DF4E0D00D54E0D00C94E0D00A0
:10830C00BD4E0D00B14E0D00A94E0D009F4E0D003F
:10831C00954E0D00056B0D000000000000000000E4
:10832C00114F0D005B4F0D00334F0D00134F0D001F
:10833C003B4F0D00434F0D004B4F0D00534F0D00A5
:10834C000000000000000000A54F0D00954F0D002F
:10835C00974F0D00302E300066616C73650074729F
:10836C007565002575002567006E756C6C007525AC
:10837C0030347800000000000000000055540D005F
:10838C007B540D002F540D00D3500D000000000045
:10839C0000000000D1580D00E5580D0025620D00BD
:1083AC0037540D00000000000000000051540D0077
:1083BC0097540D00E9570D00A5540D0062617564CA
:1083CC000053657269616C0053657269616C3100B0
:1083DC007479706500706172616D00636D64006921
:1083EC006400686E64007374726D0066696C74006E
:1083FC006C766C0061646448616E646C65720072CA
:10840C00656D6F766548616E646C657200656E753E
:10841C006D48616E646C657273004A534F4E5374B1
:10842C007265616D4C6F6748616E646C657200615A
:10843C00707000253031307520005D20002C20003C
:10844C0028293A2000205B00636F6465203D2000E2
:10845C0025690064657461696C73203D20000D0A08
:10846C00006C6E00666E00636F6465006465746119
:10847C00696C006E6F6E6500747261636500696E85
:10848C00666F007761726E006572726F7200706158
:10849C006E696300616C6C0000000000000000005D
:1084AC00A5580D00BD580D0071600D00CF400D009A
:1084BC00000000000000000053540D0089540D0012
:1084CC00995F0D0039540D00000000000000000001
:1084DC0029640D001F640D0015640D000B640D0064
:1084EC00FF630D00F3630D00E7630D00DF630D0008
:1084FC00D5630D00CB630D00056B0D006666303344
:10850C003A3A313A3130303100776972696E67002E
:10851C007061727365207061636B657420256400F3
:10852C00746831006D65736870756200000000003E
:10853C00000000009D6A0D00A76A0D00B16A0D00D5
:10854C00BB6A0D00C56A0D00D16A0D00DD6A0D0015
:10855C00E96A0D00F16A0D00FB6A0D00056B0D0058
:10856C000000000000000000D56D0D00D76D0D005F
:10857C005A00252B3033643A253032750025592D9D
:10858C00256D2D25645425483A254D3A2553257AD9
:10859C000061736374696D650000000000000000E9
:1085AC0000000000B1750D00D5750D008D6F0D002C
:1085BC00B7700D00856F0D00A36F0D00C16F0D001E
:1085CC00DB6F0D00FF6F0D009B700D009D730D0098
:1085DC003D710D00BD720D006D6F0D0045750D00E8
:1085EC0041720D0075710D0073750D00E1700D0079
:1085FC007B6F0D001D710D00816F0D00DD6F0D0087
:10860C00F0FFFFFF00000000F76F0D0000000000FE
:10861C000000000001760D0051760D005F760D0014
:10862C00E56B0D0015760D0037760D0023760D00E9
:10863C004B760D0003760D0007760D000000000050
:10864C00000000001D770D006D770D007B770D008D
:10865C00E56B0D0059770D001F770D0035770D0078
:10866C0067770D004B770D0019770D000000202067
:10867C0020202020202020282828282820202020C6
:10868C002020202020202020202020202020881086
:10869C0010101010101010101010101010100404E6
:1086AC0004040404040404041010101010101041ED
:1086BC00414141414101010101010101010101015E
:1086CC0001010101010101010110101010101042F3
:1086DC00424242424202020202020202020202022E
:1086EC00020202020202020202101010102000000C
:1086FC00000000000000000000000000000000006E
:10870C00000000000000000000000000000000005D
:10871C00000000000000000000000000000000004D
:10872C00000000000000000000000000000000003D
:10873C00000000000000000000000000000000002D
:10874C00000000000000000000000000000000001D
:10875C00000000000000000000000000000000000D
:10876C0000000000000000000000000000000000FD
:10877C0000000000000000000000000000000000ED
:10878C0000000000000000000000000000000000DD
:10879C0000000000000000000000000000000000CD
:1087AC0000000000000000000000000000000000BD
:1087BC0000000000000000000000000000000000AD
:1087CC00000000000000000000000000000000009D
:1087DC00430000003D470D00194E0D00FD4E0D00ED
:1087EC0061600D004D6A0D00D16B0D00B96D0D006F
:1087FC00416F0D00596F0D00217A0D00AD7A0D00FF
:10880C00717B0D00F57B0D00797C0D0000000000E4
:04881C000000000058
:108820005831000000000000B8830D00C4840D0022
:108830009D850D0079860D00000000007C870D00ED
:108840009C870D00BC870D000000000000000000A8
:108850000000000000000000DC870D0000000000A8
:108860000000000000000000000000000000000008
:1088700000000000000000000000000000000000F8
:1088800000000000000000000000000000000000E8
:0C88900000000000000000000CE30320CA
:10889C00FFFFFFFF00000102030405060708090A99
:1088AC000B0C0D0E0F101112131415161718191A94
:0888BC001B1C1D1E1F202800DB
:0488C400785634129C
:04000003D000401CCD
:00000001FF
